{
  "contractName": "Test",
  "abi": [
    {
      "payable": true,
      "stateMutability": "payable",
      "type": "fallback"
    },
    {
      "constant": false,
      "inputs": [
        {
          "internalType": "uint256",
          "name": "x",
          "type": "uint256"
        }
      ],
      "name": "set",
      "outputs": [],
      "payable": false,
      "stateMutability": "nonpayable",
      "type": "function"
    },
    {
      "constant": true,
      "inputs": [],
      "name": "get",
      "outputs": [
        {
          "internalType": "uint256",
          "name": "",
          "type": "uint256"
        }
      ],
      "payable": false,
      "stateMutability": "view",
      "type": "function"
    },
    {
      "constant": true,
      "inputs": [],
      "name": "get_balance",
      "outputs": [
        {
          "internalType": "uint256",
          "name": "",
          "type": "uint256"
        }
      ],
      "payable": false,
      "stateMutability": "view",
      "type": "function"
    },
    {
      "constant": true,
      "inputs": [],
      "name": "sayHi",
      "outputs": [
        {
          "internalType": "string",
          "name": "",
          "type": "string"
        }
      ],
      "payable": false,
      "stateMutability": "pure",
      "type": "function"
    },
    {
      "constant": true,
      "inputs": [],
      "name": "sayHi2",
      "outputs": [
        {
          "internalType": "string",
          "name": "",
          "type": "string"
        }
      ],
      "payable": false,
      "stateMutability": "pure",
      "type": "function"
    },
    {
      "constant": true,
      "inputs": [],
      "name": "fba",
      "outputs": [
        {
          "internalType": "string",
          "name": "",
          "type": "string"
        }
      ],
      "payable": false,
      "stateMutability": "pure",
      "type": "function"
    },
    {
      "constant": true,
      "inputs": [
        {
          "internalType": "uint256",
          "name": "a",
          "type": "uint256"
        },
        {
          "internalType": "uint256",
          "name": "b",
          "type": "uint256"
        }
      ],
      "name": "addFunc",
      "outputs": [
        {
          "internalType": "uint256",
          "name": "",
          "type": "uint256"
        }
      ],
      "payable": false,
      "stateMutability": "pure",
      "type": "function"
    },
    {
      "constant": false,
      "inputs": [
        {
          "internalType": "address payable",
          "name": "add",
          "type": "address"
        }
      ],
      "name": "sendDemo",
      "outputs": [],
      "payable": false,
      "stateMutability": "nonpayable",
      "type": "function"
    }
  ],
  "bytecode": "0x608060405234801561001057600080fd5b506104d4806100206000396000f3fe60806040526004361061007b5760003560e01c8063b0b133861161004e578063b0b13386146101c4578063c1cfb99a14610254578063d82cf7491461027f578063f4bc6fbe146102d85761007b565b80630c49c36c1461007d5780633f293e221461010d57806360fe47b11461015e5780636d4ce63c14610199575b005b34801561008957600080fd5b50610092610368565b6040518080602001828103825283818151815260200191508051906020019080838360005b838110156100d25780820151818401526020810190506100b7565b50505050905090810190601f1680156100ff5780820380516001836020036101000a031916815260200191505b509250505060405180910390f35b34801561011957600080fd5b5061015c6004803603602081101561013057600080fd5b81019080803573ffffffffffffffffffffffffffffffffffffffff1690602001909291905050506103a5565b005b34801561016a57600080fd5b506101976004803603602081101561018157600080fd5b81019080803590602001909291905050506103fd565b005b3480156101a557600080fd5b506101ae610407565b6040518082815260200191505060405180910390f35b3480156101d057600080fd5b506101d9610410565b6040518080602001828103825283818151815260200191508051906020019080838360005b838110156102195780820151818401526020810190506101fe565b50505050905090810190601f1680156102465780820380516001836020036101000a031916815260200191505b509250505060405180910390f35b34801561026057600080fd5b5061026961044d565b6040518082815260200191505060405180910390f35b34801561028b57600080fd5b506102c2600480360360408110156102a257600080fd5b810190808035906020019092919080359060200190929190505050610455565b6040518082815260200191505060405180910390f35b3480156102e457600080fd5b506102ed610462565b6040518080602001828103825283818151815260200191508051906020019080838360005b8381101561032d578082015181840152602081019050610312565b50505050905090810190601f16801561035a5780820380516001836020036101000a031916815260200191505b509250505060405180910390f35b60606040518060400160405280600981526020017f48692c206c696e6c790000000000000000000000000000000000000000000000815250905090565b6000670de0b6b3a764000090508173ffffffffffffffffffffffffffffffffffffffff166108fc829081150290604051600060405180830381858888f193505050501580156103f8573d6000803e3d6000fd5b505050565b8060008190555050565b60008054905090565b60606040518060400160405280600781526020017f48692c2066626100000000000000000000000000000000000000000000000000815250905090565b600047905090565b6000818301905092915050565b60606040518060400160405280600a81526020017f48692c206c696e6c79320000000000000000000000000000000000000000000081525090509056fea265627a7a72315820ac7baabec74b5fe00955d4311a833e5980f13dbb6bde037e89cae2f24ea7fe1064736f6c63430005100032",
  "source": "pragma solidity 0.5.16;\n\ncontract Test {\n\n    function () external payable {}\n\n    uint storedData;\n\n    function set(uint x) public {\n        storedData = x;\n    }\n\n    function get() public view returns (uint) {\n        return storedData;\n    }\n\n\n\n    function get_balance() public view returns (uint){\n        return address(this).balance;\n    }\n\n    function sayHi() public pure returns (string memory){\n        return \"Hi, linly\";\n    }\n\n    function sayHi2() public pure returns (string memory){\n        return \"Hi, linly2\";\n    }\n\n    function fba() public pure returns (string memory){\n        return \"Hi, fba\";\n    }\n\n    function addFunc(uint a, uint b) pure public returns (uint){\n        return a + b;\n    }\n\n    function sendDemo(address payable add) public {\n        uint u = 1 ether;\n        add.transfer(u);\n    }\n}\n\n",
  "sourcePath": "/Users/king/Documents/mylab/defi/t41/contracts/Test.sol",
  "compiler": {
    "name": "solc",
    "version": "0.5.16+commit.9c3226ce.Emscripten.clang"
  },
  "schemaVersion": "3.3.4",
  "updatedAt": "2021-03-05T14:31:48.124Z",
  "networkType": "ethereum",
  "devdoc": {
    "methods": {}
  },
  "userdoc": {
    "methods": {}
  }
}